:020000040800F2
:10000000B8C700206901000835110008710F000809
:1000100003110008DF020008931C00080000000024
:10002000000000000000000000000000C1150008F2
:10003000E302000800000000491200086D170008E4
:100040008301000883010008830100088301000880
:100050008301000883010008830100088301000870
:100060008301000883010008830100088301000860
:100070008301000883010008830100088301000850
:100080008301000883010008830100088301000840
:100090008301000883010008830100088301000830
:1000A0008301000883010008830100088301000820
:1000B000611800088D1800088301000883010008FA
:1000C0008301000883010008830100088301000800
:1000D00083010008830100089D1A000883010008BD
:1000E000830100088301000883010008000000006C
:1000F0000000000000000000000000000000000000
:1001000000000000000000008301000883010008D7
:1001100083010008830100088301000883010008AF
:10012000830100088301000883010008830100089F
:1001300083010008BD040008830100088301000852
:10014000830100088301000883010008830100087F
:10015000DFF80CD000F082F8004800478D630008FB
:10016000B8C700207047000006488047064800478F
:10017000FEE7FEE7FEE7FEE7FEE7FEE7FEE7FEE757
:10018000FEE7FEE7751700085101000840EA010389
:100190009B070AD102E008C9121F08C0042AFAD23C
:1001A00003E011F8013B00F8013B521EF9D2704701
:1001B000D2B201E000F8012B491EFBD270470022A9
:1001C000F6E710B504460846114602462046FFF7FA
:1001D000EFFF204610BD0146002000E0401C0A5CF5
:1001E000002AFBD1704730B504460020034600E0EA
:1001F0005B1C934203D2E05CCD5C401BF8D030BD69
:10020000034611F8012B00F8012B002AF9D11846FA
:10021000704730B500252B4600E05B1C934205D2A9
:10022000C45CCD5C651B01D1002CF6D1284630BDE5
:1002300030B50B46014600202022012409E021FAB6
:1002400002F59D4205D303FA02F5491B04FA02F5B3
:100250002844151EA2F10102F1DC30BD064C074D09
:1002600006E0E06840F0010394E807009847103486
:10027000AC42F6D3FFF770FF30C5000850C5000848
:1002800070B501EB020410F8015B15F0070301D112
:1002900010F8013B2A1106D110F8012B03E010F8E9
:1002A000016B01F8016B5B1EF9D12B0706D400230B
:1002B00001E001F8013B521EFBD50CE010F8013BB8
:1002C00002F10202A1EB030303E013F8015B01F862
:1002D000015B521EF9D5A142D5D3002070BD00BFED
:1002E000FEE77047014948617047000000900240F6
:1002F00029B1064AD2690243044BDA6104E0034A99
:10030000D2698243014BDA617047000000900240DD
:1003100030B10749896941F00201054A916105E060
:100320000349896921F00201014A91617047000087
:100330000090024030B50024104D286000BF18E046
:1003400000EB04134FF000451D6044F2F0555D6072
:10035000C4EB441505EB841501EB05159D60551E96
:10036000A54204D900EB04151035DD6000E0D8602B
:10037000641C9442E4D3024DE86030BDBC0400200C
:100380000090024021B1426822F00042426003E046
:10039000426842F0004242607047000030B10749B5
:1003A000896941F40051054A916105E00349896971
:1003B00021F40051014A9161704700000090024011
:1003C00030B500240F4D286000BF15E000EB04138A
:1003D0004FF480151D60C4EB441505EB841501EB4B
:1003E00005159D60551EA54204D900EB0415103576
:1003F000DD6000E0D860641C9442E7D3024D2861C0
:1004000030BD0000B80400200090024010B501216A
:10041000880300F02BFF00214FF4804000F026FFFE
:1004200010BD0021014600E0491E0029FCD17047A3
:100430000348806940F480100149886170470000DA
:10044000009002400148006880687047B8040020AE
:1004500001460868C0F30D407047000000B5002257
:100460000F480068006810F0004F16D10C48006873
:10047000006810F4004F10D109480068006810F4BB
:10048000807F0AD006480068006810F4007F04D01E
:1004900003480068FFF7DCFF0246104600BD00007D
:1004A000BC04002000200449096811F0010F01D0AC
:1004B000012000E0002070470090024010B501E0EC
:1004C00000F0D0FFFFF7CAFF0028F9D14020FFF766
:1004D00009FF4FF48030FFF705FF10BD2DE9F0470D
:1004E00086B004460D4600260027B046DFF820926D
:1004F000B2468848076927F01C0701A800F0E6FE0D
:10050000DDF808908448814505D38448814502D2AE
:1005100047F0080709E08148814505D37C488145BB
:1005200002D247F00C0700E000BF7A4807614FF4A1
:1005300000420021284600F08FFA18B9002006B0CA
:10054000BDE8F0877648FFF76CFF2068002848D0A8
:1005500000BF0AF1010A0121284600F029F910F034
:10056000040F02D16F488245F3D36E48824501D112
:100570000020E4E74FF0000A4FF4805200212846A3
:1005800000F06AFA08B90020D9E700BF0AF1010AB1
:100590000121284600F00CF910F0200F02D161482B
:1005A0008245F3D35F48824501D10020C7E74FF071
:1005B000000A1021284600F0FBF8064616F0040F4A
:1005C00003D04FF40060206201E00020206216F0AA
:1005D000020F02D00020606116E04FF4804060619D
:1005E00012E0206AC0F3CF006169C1F34F0140EA15
:1005F00001020021284600F02FFA08B900209EE7EA
:100600006FF07F40FFF70DFF4248076846480740FC
:10061000D4E901010843E16808432169084361699D
:100620000843A1690843E1690843216A0843616AF4
:100630000843A16A0843E16A0843216B0843616BE0
:100640000843074333480760D4E90E010843216C8F
:100650000843616C0843A16C0843E16C0843216DB9
:100660000843616D08432B494860A06D8860E06DC8
:10067000C860084687694FF641700740D4E91810F2
:1006800040EA0140A16E0843E16E0843216F084330
:10069000616F084307431F488761D4E91E0108437F
:1006A0001C49C8612148876921480740D4E92001D5
:1006B0000843D4F888100843D4F88C100843D4F8C1
:1006C00090100843D4F894100843D4F898100843C5
:1006D000D4F89C100843D4F8A010084307431348EB
:1006E0008761D4E929010843D4F8AC100843D4F851
:1006F000B0100843D4F8B41040EA8100D4F8B81020
:10070000084340F4000009490860012017E7000091
:100710000087930300800240002D3101C00E1602B5
:10072000FFFF0F00FFFF04000F8120FF0090024039
:10073000233FDEF810B50B794C7943EA0422094BCC
:1007400003441A64CB781B068C7843EA04434C7844
:1007500043EA04230C7843EA0402024B03445A643C
:1007600010BD00000080024030B10749096841F027
:100770000401054A116005E00349096821F00401FC
:10078000014A1160704700000080024030B1074903
:10079000096841F00801054A116005E0034909684C
:1007A00021F00801014A11607047000000800240FA
:1007B00010B50246002300241348036903F01C030C
:1007C0004FF4784000EAC22003434FF4F86000EA97
:1007D0008110034323F0020343F001030A4803613D
:1007E00000BF641C0848036913F0010F02D00748DA
:1007F0008442F6D30548844201D1002010BD02484E
:10080000406980B2FAE7000000800240FFFF040068
:1008100010B50548006830B100F04CFC02480021DA
:100820000A460B460EC010BD40C000201EB5002178
:100830006C4600221346944684E80C10214A126844
:10084000126812F0004F10D0002200921E4A526926
:1008500012F0800F04D080221B4B5A6100229A6054
:100860006A461CCA80E81C001EBD164A126812683F
:1008700012F4004F16D1134A1268126812F4807FE6
:1008800010D0104A1268126812F4007F0AD00D4A84
:1008900012681268C2F30D42111F0A4A1268926868
:1008A000019200E000210091064A12680292054A76
:1008B0001268D268034B1A606A461CCA80E81C00A2
:1008C000D2E70000BC04002000900240034800680A
:1008D00040F00100014908607047000000900240AC
:1008E00000B50120FFF752FFFFF7A2FD0120FFF73F
:1008F0003BFF0120FFF752FD0120FFF709FD00BD7E
:100900000021016041608160C160016141618161DC
:10091000C161016241628162C162016341638163BD
:10092000C163402101642021416400218164C164CC
:10093000016541658165C1650166802141660021CF
:100940008166C166016741678167C1674FF0806159
:10095000C0F880104910C0F884104910C0F8881001
:10096000C910C0F88C100021C0F89010C0F8941085
:10097000C0F89810C0F89C10C0F8A0104FF000719B
:10098000C0F8A4100021C0F8A8104FF40031C0F83E
:10099000AC104912C0F8B0100021C0F8B410C0F873
:1009A000B810704770B5054624480068006810F01C
:1009B000004F1DD000F080F8214800F0C1FE022257
:1009C00020492148FFF7FCFC042220492048FFF77A
:1009D000B1FC002406E01E4901EB04100121FFF7E1
:1009E000D1FC641C042CF6DBFFF77AFF002070BDFD
:1009F000C5F30C0011490968486010480068006898
:100A000040F040500D49096808600C4800680068D3
:100A100040F000400949096808600E48406910F03C
:100A2000040F04D004200B494861002048600348AB
:100A30000068C068014908600120D8E7B8040020B8
:100A40001A00002084AE0020A4960020C496002046
:100A5000649600200090024030B503460024002533
:100A60001248046904F01C044FF4784000EAC320E3
:100A700004434FF4F86000EA8110044344F0020498
:100A800044F0010409484261046100BF6D1C07483D
:100A9000046914F0010F02D005488542F6D30448DA
:100AA000854201D1002030BD0120FCE700800240DA
:100AB000FFFF040072B6704700B5AFB0002000F031
:100AC000C9F8062000F0C8FCFFF7A0FCFFF7FEFE07
:100AD00000BFFFF7E7FC0128FBD06846FFF710FFD7
:100AE00001200090002007904FF400700A90002031
:100AF0000B900E90119013901490159020904FF041
:100B00000070219000112390002025902690042051
:100B10002890C005299040122A9080012B90401205
:100B20002C9040002E9001216846FFF7D7FC012150
:100B30000248FFF7DDFB2FB000BD000040000100C0
:100B400062B670470346704708B50420ADF8000050
:100B500003208DF8020018208DF8030069463948FB
:100B600000F07EF80620ADF8000003208DF80200AA
:100B700018208DF803006946334800F071F843F6F9
:100B80002010ADF8000003208DF8020018208DF829
:100B9000030069462D4800F063F801214FF0201052
:100BA00000F0E6F80B20ADF8000003208DF80200FD
:100BB00004208DF803006946224800F051F84FF4F4
:100BC0008060ADF8000003208DF8020004208DF84D
:100BD000030069461D4800F043F80820ADF8000006
:100BE00003208DF8020004208DF8030069461648A2
:100BF00000F036F84FF4F850ADF8000003208DF8FF
:100C0000020004208DF803006946114800F028F81E
:100C10001020ADF8000000208DF8030069460A4856
:100C200000F01EF84FF48070ADF8000003208DF83E
:100C3000020018208DF803006946024800F010F801
:100C400008BD00000008014000100140000C0140F8
:100C5000001401400149086070470000DC00204298
:100C60002DE9F04100220023002400250026002762
:100C700091F803C00CF00F0291F803C01CF0100FA4
:100C800003D091F802C04CEA0202B1F800C01CF097
:100C9000FF0F31D0066800242BE04FF0010C0CFA56
:100CA00004F5B1F800C00CEA0503AB4220D1A50061
:100CB0004FF00F0C0CFA05F7BE4302FA05FC4CEAA4
:100CC000060691F803C0BCF1280F06D14FF0010CC5
:100CD0000CFA04FCC0F814C00AE091F803C0BCF19F
:100CE000480F05D14FF0010C0CFA04FCC0F810C0FD
:100CF000641C082CD1D30660B1F800C0BCF1FF0F12
:100D000034DD466800242EE004F1080C4FF00108A1
:100D100008FA0CF5B1F800C00CEA0503AB4221D18A
:100D2000A5004FF00F0C0CFA05F7BE4302FA05FCC4
:100D30004CEA060691F803C0BCF1280F05D104F176
:100D4000080C08FA0CF8C0F8148091F803C0BCF144
:100D5000480F07D104F1080C4FF0010808FA0CF80D
:100D6000C0F81080641C082CCED34660BDE8F0812A
:100D7000F0B5002200230024002500F00046B6F163
:100D8000004F02D11C4EF46901E01B4E7468C0F3A1
:100D9000034582B200F44016B6F5401F08D124F096
:100DA0007064154E766826F07066134F7E6012E010
:100DB00000F48016B6F5801F06D1032606FA05F367
:100DC0009C4344F0706406E0460D360102FA06F6D4
:100DD000B44344F0706421B1460D360102FA06F6C0
:100DE000344300F00046B6F1004F02D1024EF461E8
:100DF00001E0014E7460F0BD0000014041617047A8
:100E0000016170472DE9F0410024404800680588E1
:100E10003E48006846883D48006807793C49081903
:100E200008223CA1FFF7B2F908340D2038490855D3
:100E30000A21601C0446364A115411460819122230
:100E400037A1FFF7A3F91234314908192A4639A10D
:100E500000F022FF2044C4B20D202D4908550A217C
:100E6000601CC0B204462A4A1154114608191222C5
:100E700031A1FFF78BF904F11200C4B2244908191B
:100E800032462CA100F008FF2044C4B20D202049B6
:100E900008550A21601CC0B204461D4A115411466F
:100EA0000819142229A1FFF771F904F11400C4B242
:100EB000AA1B174908191FA100F0EEFE2044C4B276
:100EC0000D20134908550A21601CC0B20446104A7F
:100ED0001154114608190A2222A1FFF757F904F10B
:100EE0000A00C4B20A4908193A4612A100F0D4FE19
:100EF0002044C4B20D20064908550A21601CC0B226
:100F00000446034A11541046BDE8F081CC04002089
:100F1000582B0020C4DAB4E6D0C5CFA200000000F0
:100F2000D7DCC4DAB4E6CAFDA3A8D7D6BDDAA3A934
:100F3000A3BA000025640000D2D1D3C3C4DAB4E65A
:100F4000A3A8D7D6BDDAA3A9A3BA0000CAA3D3E049
:100F5000C4DAB4E6CAFDA3A8D7D6BDDAA3A9A3BA5A
:100F600000000000CAB9D3C3B1EACABEA3BA0000E8
:100F700010B5FFF7F7F800BFFEE71FB501210846DF
:100F800000F084F940F60F640121880700F092FC1C
:100F90004FF4A06000F030F91C208DF80C00032005
:100FA0008DF80D0000208DF80E0001208DF80F0047
:100FB00003A800F0DFF80121880700F08AFC002276
:100FC0000121880700F0A5FC00214FF0804000F0CF
:100FD00083FCADF800400020ADF80600ADF802003B
:100FE000C820ADF804006946C00600F0A1FC01214C
:100FF000880700F06EFC01221146900700F089FC82
:1010000000214FF0804000F090FC0121880700F0A3
:1010100063FC1FBD00B587B005F03EFA05F042FC49
:101020000E4806904FF6FF7005900D4804900D484D
:1010300000F086FB0C4B0D4A00218DE80E0004AB3E
:1010400005AA06A90A4805F0F3FC094805F040FD89
:10105000074805F093FD07B000BD0000C0A8FEFAE8
:10106000C0A800141A000020813200086D33000867
:10107000B805002010B50446FFF7CAFB0B4800680E
:10108000201AFA2805D30948046009F08FFE00F001
:10109000D5FC07480068201A41F28831884203D302
:1010A0000348046002F040F810BD0000000000207A
:1010B0000400002010B5024802F084F910BD0000C1
:1010C000B8050020F8B504460D461746FD2F00DD93
:1010D000F8BD68460AF066FE002607E02878009909
:1010E00008700098401C00906D1C761CBE42F5DB19
:1010F00068460AF057FE3A462046009901F036FB52
:10110000E6E700BFFEE7000070B505460748006847
:1011100050B106480468002004490860224604498A
:101120000620FFF7CFFF00BF70BD00003400002095
:10113000F6050020704708B500214FF0006000F070
:1011400079F800214FF0006000F074F84FF4A060CF
:1011500000F052F83D208DF8000002208DF80100CB
:1011600000208DF8020001208DF80300684600F091
:1011700001F808BD70B5002100230F22C4784CB3DC
:101180001A4C246804F4E064C4F5E0644FEA1421C6
:10119000C1F1040322FA01F2447804FA03F18478DD
:1011A00004EA020444EA01014FEA0111104C0678F6
:1011B000A155047804F01F054FF0010404FA05F46A
:1011C00005784FEA65154FF0E02606EB8505C5F872
:1011D000004109E0047804F01F040125A540054CF6
:1011E0000678761144F8265070BD00000CED00E042
:1011F00000E400E080E100E002490143024A11609E
:10120000704700000000FA050CED00E010B5002862
:1012100007DA0A07130E054A00F00F04241F1355BE
:1012200003E00A07130E024A135410BD18ED00E044
:1012300000E400E0024A0A400243024B1A60704791
:1012400080FFFF1F08ED00E07047000029B1064A4B
:1012500052690243044B5A6104E0034A52698243D3
:10126000014B5A61704700000010024029B1064A44
:10127000926A0243044B9A6204E0034A926A8243F0
:10128000014B9A62704700000010024029B1064AE3
:10129000D2690243044BDA6104E0034AD269824313
:1012A000014BDA61704700000010024029B1064A84
:1012B00092690243044B9A6104E0034A92698243B3
:1012C000014B9A6170470000001002402DE9F04187
:1012D00000210022002300240025002600278C4640
:1012E000DFF86481D8F8048008F00C0121B10429EA
:1012F00007D0082959D109E0DFF85081C0F80080F3
:1013000058E0DFF84881C0F8008053E0DFF838810A
:10131000D8F8048008F47012DFF82C81D8F8048023
:1013200008F48033920C0D2A01D0921C00E00622B2
:1013300033B9DFF81C8102FB08F8C0F8008033E005
:10134000DFF80481D8F82C8008F48035DFF8F880C5
:10135000D8F82C8008F00F0808F1010645B9DFF82D
:10136000EC80B8FBF6F808FB02F8C0F800801BE040
:10137000DFF8D480D8F82C80C8F3031808F10107EF
:10138000DFF8C480D8F82C80C8F3032808F1020CD9
:10139000DFF8B880B8FBF7F808FB0CF8B8FBF6F8F4
:1013A00008FB02F8C0F8008004E0DFF8A080C0F875
:1013B000008000BF00BFDFF89080D8F8048008F0FC
:1013C000F0010909DFF88C8018F80140D0F800809E
:1013D00028FA04F8C0F80480DFF86C80D8F804809C
:1013E00008F4E061090ADFF86C8018F80140D0F8D1
:1013F000048028FA04F8C0F80880DFF84C80D8F898
:10140000048008F46051C90ADFF8488018F80140E8
:10141000D0F8048028FA04F8C0F80C80DFF828809F
:10142000D8F8048008F44041890BDFF8288008F1DF
:10143000100818F80140D0F80C80B8FBF4F8C0F898
:101440001080BDE8F08100000010024000127A0018
:1014500000093D00A40400200149C8717047000044
:10146000001002400EB51148FFF7E0F90F49684639
:101470000EC90EC00D48006840F2DC51884205D804
:101480000A48026841680A48FEF780FE4FF00040B3
:101490000649896808600748406910F0800F04D049
:1014A000802004494861002088600EBD40C00020B3
:1014B00064BA00200090024021B1028842F040024C
:1014C000028004E002884FF6BF731A400280704722
:1014D00000B587B001210520FFF7E8FE01210803D0
:1014E000FFF7E4FEE020ADF8180003208DF81A00A5
:1014F00018208DF81B0006A91948FFF7B1FB102032
:10150000ADF8180003208DF81A0010208DF81B008C
:1015100006A91348FFF7A4FB0020ADF804004FF420
:101520008270ADF806000020ADF80800ADF80A00A2
:10153000ADF80C004FF40070ADF80E000020ADF8CF
:101540001000ADF812000720ADF8140001A90548FD
:1015500000F018F801210348FFF7AEFF07B000BD07
:1015600000080140003001400246002013890B4270
:1015700001D0012000E000207047014688897047B3
:101580008181704710B50022028802F441520B8815
:101590004C8823438C882343CC8823430C892343E2
:1015A0004C8923438C892343CC8923431A430280EB
:1015B000838B4FF2FF74234083830B8A038210BD19
:1015C0007047000070B505461648007810BB1648F5
:1015D0000068F8B101231448006882B21349144826
:1015E000006809F021FC044600200F49086024B976
:1015F0000F48006807F0A0FE12E00E480078401C7B
:101600000C49087008460078322809DB0020087071
:1016100000BF05E00448006810B1002002490860DE
:1016200070BD00002000002044000020D20B0020EC
:10163000540400204800002010B500F001F810BD4F
:10164000002000213A4A126842F48032384B1A6076
:1016500000BF374A126802F40031401C11B9B0F5DE
:10166000A06FF6D1324A126812F4003F01D0012176
:1016700000E0002101295AD12E4A126842F01002DE
:101680002C4B1A601A46126822F003021A601A469E
:10169000126842F002021A60254A5268244B5A60CE
:1016A0001A4652685A601A46526842F480625A607A
:1016B0001A46D26A204B1A401D4BDA621A46D26A89
:1016C0001E4B1A431A4BDA621A46126842F08062C5
:1016D0001A6000BF164A126812F0006FFAD0144A5E
:1016E000526822F47C12124B5A601A46526842F435
:1016F000E8125A601A46126842F080721A6000BFFF
:101700000B4A126812F0007FFAD0094A526822F0A0
:101710000302074B5A601A46526842F002025A60AE
:1017200000BF034A526802F00C02082AF9D1704740
:10173000001002400020024000F0FEFF44060100BD
:1017400010B5044620780849087060784870A07881
:101750008870E078C87020790871607948712146F6
:101760000020FEF7E7FF10BD5C05002010B500F07B
:1017700093F910BD10B51648006840F001001449F7
:101780000860084640681349084011494860084607
:101790000068114908400E4908600846006820F4B6
:1017A000802008600846406820F4FE004860084633
:1017B000006820F0A05008604FF47F00886000208F
:1017C000C862FFF739FF4FF000600449086010BDA0
:1017D000001002400000FFF0FFFFF6FE08ED00E001
:1017E00010B586B0FFF7C6FF00234FF41652022152
:1017F000184600F0A1FE00F08BFE01214FF4E0300E
:10180000FFF724FD012140F27D20FFF74FFDFFF798
:1018100092FCFFF799F9FFF74FF901A8FFF756FD82
:1018200064210198B0FBF1F4B4F1807F00D311E0A2
:1018300024F07F40401E4FF0E02148610F214FF01F
:10184000FF30FFF7E3FC00204FF0E0218861072024
:10185000086100BF0121881EFFF7D8FC06B010BD4B
:1018600010B50121880700F043F860B10121880715
:1018700000F02CF80121880700F02BF802480068DE
:101880000A300149086010BD9804002010B50121FC
:10189000074800F02DF848B10121054800F016F87E
:1018A0000121034800F015F805F078FE10BD000096
:1018B0000004004021B1028842F08002028004E06E
:1018C00002884FF67F731A4002807047CA43028233
:1018D0007047CA430282704721B1028842F0010278
:1018E000028004E002884FF6FE731A4002807047BF
:1018F00030B50246002000230024158A05EA0103C2
:10190000958905EA010413B10CB1012000E0002023
:1019100030BD10B51AB183890B43838104E08389FC
:10192000CC43A4B22340838110BD81847047000062
:10193000002202881D4B98420ED01D4B98420BD0BE
:10194000B0F1804F08D01B4B984205D01A4B9842FB
:1019500002D01A4B984204D14FF68F731A404B882D
:101960001A43174B984207D0164B984204D04FF6B3
:10197000FF431A40CB881A4302808B8883850B88EB
:1019800003850A4B98420BD0094B984208D00E4B66
:10199000984205D00D4B984202D00D4B984201D190
:1019A0000B7A03860123838270470000002C0140DC
:1019B000003401400004004000080040000C0040DA
:1019C000001000400014004000400140004401406D
:1019D0000048014010B504460F480068201A41F243
:1019E0008831884217D30C4804600C48007830B125
:1019F0000C220BA10120FFF7A5F806F033FB0B48E2
:101A0000007840B90120094908700C2208A1FFF7AD
:101A100099F809F05BFF10BD2C0000202000002089
:101A20005443505F52657472790D0A002100002002
:101A30005544505F52657472790D0A0010B5104814
:101A40000078D8B10F480078401C0E49087008464D
:101A50000078552812DD00230B4802880B490C48FA
:101A6000006809F031FE0B4801680948006809F078
:101A7000B5FC0020024908700249087010BD000042
:101A80007C0400207D0400208C04002088040020B9
:101A900084040020800400207047000010B540F24C
:101AA00025510B4800F031F8012806D140F22551AC
:101AB000074800F00FF805F079FD40F2277104485F
:101AC00000F023F8012801D105F078FD10BD0000D9
:101AD0000044004010B500220023A1F510646A3CC8
:101AE00000D100BF0A1201249440A3B2DC43048059
:101AF00010BD21B1828942F40052828104E08289C2
:101B00004DF6FF731A408281704770B5024600237C
:101B1000002400250020A1F510666A3E00D100BF18
:101B2000C1F3421501F01F04012606FA04F4012D49
:101B300002D19689344006E0022D02D1168A344043
:101B400001E0968A34400B12012606FA03F3168848
:101B5000334014B10BB1012000E0002070BDF0B59E
:101B60000024002500260023A1F510676A3F00D15C
:101B700000BF0346C1F3421401F01F05012707FA15
:101B800005F6012C01D10C3304E0022C01D11033F5
:101B900000E014331AB11F6837431F6002E01F686A
:101BA000B7431F60F0BD00002DE9F04786B0044642
:101BB0000D460026002700BFB146B246A88900B1F5
:101BC00000BFA246268A4CF6FF700640E88806430E
:101BD0002682A6894EF6F3100640A8882989084374
:101BE000698908430643A681A68A4FF6FF4006404E
:101BF000A8890643A68201A8FFF768FB54461F4840
:101C0000824501D1049F00E0039FA08910F4004F9A
:101C100008D007EBC70000EB071029684900B0FBAC
:101C2000F1F807E007EBC70000EB0710296889000F
:101C3000B0FBF1F86420B8FBF0F006013009642134
:101C400001FB1089A08910F4004F09D0322101EB6B
:101C5000C9006421B0FBF1F000F00700064308E082
:101C6000322101EB09106421B0FBF1F000F00F000C
:101C70000643268106B0BDE8F08700000038014029
:101C800001468888C0F308007047C1F308028280CB
:101C9000704700BFFEE700000FB410B504A9074B62
:101CA00002AA039800F01CF8044602A9002000F0E4
:101CB000C1F9204610BC5DF814FB00003520000877
:101CC00002E008C8121F08C1002AFAD17047704705
:101CD000002001E001C1121F002AFBD17047000063
:101CE0002DE9FF4F8DB005468846002669E125287D
:101CF0007ED100246D1CB949A146A24601222B7851
:101D0000203B02FA03F0084202D004436D1CF6E7C0
:101D100028782A2816D158F8049BB9F1000F03DA65
:101D200044F40054C9F1000944F002046D1C10E0B1
:101D300009EB890002EB400044F0020401EB0009CA
:101D40006D1C01E06FF02F022978A1F13000092805
:101D5000EED928782E2818D115F8010F44F0040484
:101D60002A280BD158F804AB6D1C0EE00AEB8A0050
:101D700002EB400001EB000A6D1C01E06FF02F0246
:101D80002978A1F130000928F0D928786C280ED0E4
:101D900008DC4C2816D068280CD06A2813D144F4EB
:101DA00000140FE074280DD07A280CD10AE044F416
:101DB000801401E044F440146978814202D16D1C22
:101DC00004F580146D1C2878692806D017DC0028DB
:101DD00076D0632843D064288AD10A2758F8040BA8
:101DE000C4F30251032900D100B2042902D100E05A
:101DF000EFE040B2002871DA40422D2171E06E28F8
:101E000010D0732836D07528E6D10A2758F8040B6D
:101E1000C4F30251032900D180B2042900D1C0B219
:101E2000002161E0C4F30250022806D1D8F8001066
:101E3000F217C1E9006240460EE0032804D1D8F849
:101E4000001040460E8007E00428D8F800104046F5
:101E500001D10E7000E00E6000F10408B0E058F807
:101E6000041B8DF82C1000208DF82D000DF12C0B8B
:101E7000012003E058F804BB4FF0FF3061074FF03A
:101E800000070AD500E07F1C57450EDA8742FADBCF
:101E90001BF807100029F6D107E000E07F1C8742FD
:101EA000FCDB1BF807100029F8D1DDE90F23A9EBB3
:101EB00007092146484600F0A6F83044C61905E057
:101EC00083E0DDE90F121BF8010B90477F1EF8D26B
:101ED000DDE90F23214648466FE0FFE7210505D5E0
:101EE0002B218DF80C100121019103E0E10797D01F
:101EF0002021F6E70DF1300B08E03946FEF798F99E
:101F0000ABF1010201F13001934611700028F4D1C8
:101F100004A9A1EB0B0000F120000290600702D59C
:101F200024F4803401E04FF0010A029A0020924527
:101F300001DDAAEB02008246019910440144A9EB9D
:101F400001000C90E00306D4DDE90F2321460C9834
:101F500000F059F8064400270DF10C0906E0DDE910
:101F60000F1219F807009047761C7F1C01988742D2
:101F7000F5DBE0030CD5DDE90F2321460C9800F0DA
:101F800042F8064404E0DDE90F1230209047761C49
:101F9000BAF10000AAF1010AF5DC05E0DDE90F1253
:101FA0001BF8010B9047761C0298411E02910028F5
:101FB000F4DCDDE90F2321460C9800F011F806440B
:101FC0006D1C287800287FF492AE304611B0BDE831
:101FD000F08FDDE90F129047761CF1E70928010028
:101FE0002DE9F0410446002517461E46880407D512
:101FF00004E039462020B04705F10105641EF8D5FC
:102000002846BDE8F0812DE9F0410446002530273F
:1020100090461E46C80300D42027880407D404E055
:1020200041463846B04705F10105641EF8D52846FB
:10203000BDE8F0810A68531C0B6010707047F0B562
:1020400002460020002323E0D75C00241AE0C0F3FE
:102050008015FE0995EA060C08D080F004004FEACE
:10206000406C4FEA1C6040F0010003E04FEA406C16
:102070004FEA1C6004F1010C0CF0FF044FEA476CBE
:102080004FEA1C67082CE2DB03F1010C0CF0FF03A4
:102090008B42D9DBF0BDF0B587B004460E46324620
:1020A00001A9204602F09BFA012201A9204601F075
:1020B0002DFA18B14FF0FF3007B0F0BD01A920464E
:1020C00002F057FA0746012201A9204601F01EFA44
:1020D00010B14FF0FF30EFE73A463146204601F0AD
:1020E000C4F9054603E02046039902F0F5F8681CA0
:1020F0000546024601A9204601F0DAF90028F2D08F
:102100000020D9E770B506460C4615460B2221463D
:10211000284604F062F90020E07220736073E081C9
:102120002082208A60820020A082E089E082208ACA
:10213000208300206083E06170BD2DE9F0410446FA
:102140000E46154629680222206804F077FD0746EE
:10215000287907EB40112022304604F03EF9394639
:10216000206804F0A7FDBDE8F081F0B589B0044611
:102170000D46174600262AE004EB4611202201A84E
:10218000FEF704F89DF80F0000F00F000F281CD098
:102190000B22294601A805F019FEB0B907B13E711E
:1021A00017B19DF80F007871BDF81E00BDF818102A
:1021B00010EB014002D1012009B0F0BDBDF81E00B6
:1021C000BDF8181000EB0140F6E7701CC6B2102EE7
:1021D000D2DB0020F0E770B588B004460D4600263B
:1021E00019E004EB461120226846FDF7CFFF9DF869
:1021F0000B0000F00F000F280BD09DF8000018B165
:102200009DF80000E52804D105B12E71012008B029
:1022100070BD701CC6B2102EE3DB0020F7E72DE97D
:10222000F04104460D4617461E4616B1012E0CD14C
:1022300006E03A4629462046FFF797FFBDE8F081C1
:1022400039462046FFF7C7FFF8E70020F6E72DE9FB
:10225000F84F04460D4616461F46DDF8288000203C
:10226000009081462AE02946204602F058F800EB0B
:10227000090B01225946206804F0E0FC0090434617
:102280003A4631460098FFF7CAFF5FEA000A0DD0D0
:102290002FB12946204602F042F8484438602068B1
:1022A000009904F007FD5046BDE8F88F20680099BA
:1022B00004F000FD09F1010000F0FF09A079484594
:1022C000D1DC0020F0E72DE9F04788B004460D4648
:1022D00016461F46DDF840804FF00009059604962B
:1022E00000208DF8080006900390012E08D8434680
:1022F0003A462946204600F01CF808B0BDE8F087B1
:102300000CE0CDF800803B462A4620460499FFF7B2
:102310009EFF5FEA000A01D05046EEE74A4609F107
:10232000010902A9204601F0C3F80028E9D00020E5
:10233000E3E72DE9F04704460D4616461F464FF0E9
:10234000000994F83C00012806D094F83C000228CB
:1023500002D00020BDE8F087D4F82C801DE00122D7
:102360004146206804F06AFC81463B4632462946D5
:102370004846FFF754FF5FEA000A08D00EB1C6F8DE
:1023800000804946206804F095FC5046E2E7494643
:10239000206804F08FFC08F10108A089C11700EB48
:1023A000D161E26A02EB61114145D8D84946206803
:1023B00004F080FC0020CDE7FEB504460F46002661
:1023C0000B21684604F000F80B21384603F0FCFFAF
:1023D000254620782F2800D16D1C06E00B223946B7
:1023E000684603F0FAFF701CC6B26946284601F041
:1023F0008FFE0500F2D10EB10120FEBD0020FCE7EA
:102400002DE9F04104460E46154629680122206850
:1024100004F014FC0746287907EB401120223046CF
:10242000FDF7B4FE3946206804F044FCBDE8F081B5
:102430002DE9F04104460D4616462968022220681F
:1024400004F0FCFB0746287907EB4010C6613946CB
:10245000206804F02FFCBDE8F0812DE9F04104462E
:102460000D46164629680222206804F0E7FB07465D
:10247000300C297907EB41118882297907EB41114A
:102480004E833946206804F015FCBDE8F0812DE943
:10249000F04104460E46154629680222206804F0E1
:1024A000CDFB0746287907EB40112022304603F088
:1024B00094FF3946206804F0FDFB0020BDE8F08160
:1024C00070B505460C462C6000202871284600F0A7
:1024D00001F870BD70B5044605220021206802F0A5
:1024E000F8FD064600250CE04FF4DF7303EB051200
:1024F00004F1080000EB0511304600F079FF681C7C
:10250000C5B2042DF0DB3146206802F085FF70BDB6
:1025100010B5002407480078012807D1054812307B
:102520000068804700200349087000E00624204628
:1025300010BD00006E0500202DE9F04104460D4657
:1025400016461F464FF00008F4B9194819490860AB
:102550001948091D086019480839086018480C31E5
:1025600008600020091D08601648174908601748D0
:10257000174908601748184908603A463146284606
:1025800000F0ACF8804602E04FF0020800BF00BF48
:10259000B8F1000F09D109F055FD10B94FF003084B
:1025A00003E001200349123908704046BDE8F0817C
:1025B000B927000880050020DD2700086D270008E6
:1025C0003127000819C200089005002021C3000827
:1025D00094050020ADC2000898050020F8B500243D
:1025E0003A48007808B10620F8BD684609F01AFD9F
:1025F000012868D19DF80000052863D2DFE800F0CB
:10260000030416465E005DE0304A0832911F081D43
:1026100000F114031B68984704461CB9022009F016
:1026200019FD02E0042009F015FD4BE027480830B1
:102630000088FF2825DC25480830008824490860E8
:10264000FF2024490870552048702348007888707E
:102650001F4802681D48801C01681E48C01CFDF709
:1026600095FD0D211B4A1A480068C01C11540A210F
:1026700017480068001D115415480068401D144992
:102680000860012011490A3108701BE0012009F09F
:102690005DFC0E48801C09F085FB09F09FF805469B
:1026A00009F096F806462A460848801C016830461C
:1026B000064B0E331B689847044603E0002009F0E0
:1026C00045FC00BF00BF00208EE700006E05002023
:1026D00044000020D20B0020420000202DE9F041F0
:1026E00004460D4616460027FEF7E4F93346082255
:1026F0002946204609F0C2FC012801D0032710E03A
:10270000B5F5964F02D94FF0230803E0680007495A
:10271000B1FBF0F81FFA88F009F048FD012800D05D
:102720000327FEF70DFA3846BDE8F081A07F1700B9
:102730002DE9F04107460C4615460026FEF7BAF98A
:1027400008480088042806DB00BF06480088288067
:102750000548206000E00526FEF7F2F93046BDE8A6
:10276000F0810000AE050020B5C200202DE9F04147
:1027700004460D4616460027102C02DD0220BDE857
:10278000F081FEF797F90B48007801280DD1094830
:10279000801C0560001D068001200649491E087046
:1027A0000121002009F004FB00E00527FEF7C8F92D
:1027B0003846E4E7A605002010B5FEF77BF90020B7
:1027C000054908700021012009F0F2FA09F08CFB9C
:1027D000FEF7B6F910BD0000A605002010B5FEF703
:1027E00069F90021084609F0E3FA09F03BFBFEF71E
:1027F000A7F910BD70B504460D462946204602F0E3
:1028000052F980BB00222146201D02F03AFD211D15
:1028100004F50970FFF754FE04F5097104F51B7007
:1028200004F01EFA94F97002401C10D10B214FF4F1
:102830000C7001550021C4F834124FF40E70216859
:10284000015104F5097104F51B7004F009FA04F54F
:102850001B7104F51D7001F0D1FE10B16FF0010085
:1028600070BD0020FCE7FFE74FF0FF30F8E7000005
:102870002DE9FC4704460D46164600BF1CB900BFB3
:1028800000BFBDE8FC8700BF70892A280EDA5748D0
:10289000408C401C81B255484184C08B401C81B2A1
:1028A0005248C183304604F047FCEAE7D6F804807A
:1028B00008F10E073888B0F5807F08D138790628EE
:1028C00005D17879042802D1788808280ED04748A5
:1028D000008D401C81B245480185C08B401C81B2EF
:1028E0004248C183304604F027FCCAE73F48408B8A
:1028F000401C81B23D484183042207F10E0101A82A
:10290000FDF744FC042207F118016846FDF73EFC80
:10291000201D01D0606810B94FF0000908E0009850
:102920006168884201D1012000E0002000F0FF0929
:10293000B9F1000F01D0012000E00220C3B207F17D
:10294000080201A9204600F035FCF888B0F5807F28
:1029500003D0B0F5007F3DD13BE0B9F1000F36D098
:10296000022003F0D2FCF880042207F10E0107F1E7
:102970001800FDF70BFC0422211D07F10E00FDF7E6
:1029800005FC00BF94F82600062801D000BF00BF58
:1029900000BF062207F1080107F11200FDF7F6FB60
:1029A000062207F108014046FDF7F0FB0622294602
:1029B00007F10800FDF7EAFB0622294608F10600A8
:1029C000FDF7E4FB31462046A269904700E000BFD6
:1029D00007E006E00548808D401C81B203488185F0
:1029E00000BF00BF304604F0A7FB4AE780940020F8
:1029F0002DE9FC5F04460D460A260A27B0464FF033
:102A000000094FF0000A00200190B346009000BF7B
:102A100067E009EB8900624A02EB8000817CB8F133
:102A20000A0F03D111B94FFA89F856E0002954D0A2
:102A300000BF012903D0022901DA00BF00BF00BF97
:102A400064B109EB8902564B03EB8202206852689D
:102A5000904203D14FFA89F0BDE8FC9F012928D1AB
:102A600009EB89004E4A52F8200088B109EB890031
:102A700002EB8000C07C009A90422EDB4FFA89FB6B
:102A800009EB8900464A02EB8000C07C009024E0FC
:102A900009EB8900424A02EB8000C07C50451CDBF8
:102AA0004FFA89F609EB890002EB800090F813A039
:102AB00013E0022911DB09EB8900394A02EB80009F
:102AC000C27C0198824208DB4FFA89F709EB890042
:102AD000334A02EB8000C07C019009F1010000F054
:102AE000FF09B9F10A0F94DB15F0020F05D1B8F117
:102AF0000A0F05D115F0010F02D14FF0FF30ABE7FF
:102B0000B8F10A0F02DA08F0FF0925E00A2F0BDA04
:102B100007F0FF0900BF09EB8900214951F82000A7
:102B200008B100BF00BF0DE00A2E02DA06F0FF096F
:102B300008E0BBF10A0F02DA0BF0FF0902E04FF0E8
:102B4000FF3089E700BFB9F10A0F01DB00BF00BF0A
:102B500000BF484600F026F800BFB9F10A0F01DBBC
:102B600000BF00BF00BF00BF09EB89000C4901EBAB
:102B70008000807C08B100BF00BF00BF34B109EB0A
:102B80008901074A02EB810120684860002009EBB7
:102B90008901034A02EB8101C8744FFA89F05BE7AF
:102BA0009C95002010B5044604EB84000C4951F8B4
:102BB000200060B104EB8401094A52F8210004F0BE
:102BC000BBFA002004EB8401054A42F821000020F2
:102BD00004EB8401024A02EB8101887410BD0000FD
:102BE0009C9500202DE9FC4704460D461646B0464C
:102BF00000BF0CB900BF00BF00BF00BF0DB900BFD0
:102C000000BF00BF00BF0EB900BF00BF00BF0E2154
:102C1000284604F0EEFA40B14D484089401C4C492A
:102C200048816FF00100BDE8FC872146306802F062
:102C3000A3FC08B1474F83E0306800F0F000E028C3
:102C400015D101208DF8000000208DF801005E20D4
:102C50008DF80200707800F07F008DF80300B078E6
:102C60008DF80400F0788DF805006F4667E0306855
:102C7000A1680840D4E901121140884210D03068A0
:102C800080B2A0F57E41A9390AD014F10C0004D01D
:102C9000E06810B104F10C0802E06FF00300C2E735
:102CA0002D48007800EB80002C4901EB8000807CEF
:102CB000022818DB2849097801EB8101274A02EB39
:102CC0008101D8F80000496888420CD12048C08DA5
:102CD000401C81B21E48C1851F4802782946204603
:102CE00000F03EF89FE74FF000091FE009EB890074
:102CF0001A4901EB8000807C022813DB09EB890173
:102D0000164A02EB8101D8F800004968884209D1CF
:102D1000114981F8009009F0FF022946204600F091
:102D20001FF880E709F101004FFA80F9B9F10A0FA5
:102D3000DCDB2A464146204600F052F873E700BF2C
:102D40003B4604F127022946204600F0CBF96AE70A
:102D50008094002028C400084E0500209C95002087
:102D600070B504460D46164600BF06EB86001B49AB
:102D700001EB8000807C022801DA00BF00BF00BFA9
:102D800006EB8600154901EB8000807C022817D1F4
:102D900006EB860001EB8000C07CE42810DB06EB2C
:102DA00086000A4602EB8000011D204600F084F9EF
:102DB00030B9032006EB8601084A02EB81018874D2
:102DC00006EB8600054901EB800000F10C0304F1DD
:102DD00027022946204600F085F970BD9C95002009
:102DE0002DE9F05F04460D46164604F127074FF023
:102DF000FF382146286802F0BFFB38B9286800F088
:102E0000F000E02802D00DB1286818B96FF00D006D
:102E1000BDE8F09F01212846FFF7EAFD8146B9F1A0
:102E2000000F08DA2EB15E48808C401C81B25C48ED
:102E300081844846ECE709EB89005A4901EB8000A0
:102E4000807C30B9012009EB8901564A02EB8101EF
:102E5000887400BF09EB8900524901EB8000807C37
:102E6000012808D009EB890001EB8000807C022852
:102E700001DA00BF00BF00BF09EB8900494901EB3F
:102E80008000807C012800D03EB92946204600F011
:102E900013F980460EB94046BAE700BF0EB900BF2D
:102EA00000BF00BF09EB89003E4901EB8000807C38
:102EB000022810DB3C4981F8009009EB8900394970
:102EC00001EB800000F10C033A463146204600F049
:102ED00009F9804662E009EB8900324901EB800084
:102EE000807C01285AD14FF0000BB24615E000BF9C
:102EF000BAF80A00BAF80810884204D1DAF80000DB
:102F000008B100BF00BF00BF9AF80C00012802D032
:102F10004FF0010B04E0DAF800A0BAF1000FE6D19F
:102F200000BFBBF1000F14D0BAF808100022032034
:102F300003F0C9FE8246BAF1000F0ED0314650466A
:102F400004F03BF848B1504604F0F6F84FF0000AA0
:102F500003E0B246504604F0EBF9BAF1000F14D08A
:102F600009EB89000F4951F8200030B109EB8901C4
:102F70000C4A52F8210004F0DFF809EB89000949F6
:102F800041F820A04FF0000807E00548808C401C65
:102F900081B2034881844FF0FF3800BF404637E7D5
:102FA000809400209C9500204E0500202DE9FE4FC6
:102FB00004460D4616461F46DDE90D9ADDF83080C1
:102FC0000020029000BF0CB900BF00BF00BF00226C
:102FD0002A21032003F077FE8346BBF1000F09D1BD
:102FE0003448808C401C81B2324881844FF0FF30DD
:102FF000BDE8FE8F00BFBBF80A002A2801DA00BF37
:1030000000BF00BFDBF80410019101990E3100915F
:103010000F9803F07AF90099C88000BF94F8260051
:10302000062801D000BF00BF00BF06223946009825
:103030000830FDF7ABF80622494600981230FDF73C
:10304000A5F8062231460198FDF7A0F80622294688
:103050000198801DFDF79AF80422414600980E3031
:10306000FDF794F80422514600981830FDF78EF8C9
:103070004FF4807100980180082000994880062153
:10308000009801710421009841714FF4C1610198C9
:10309000818159462046A269904702900548008BDD
:1030A000401C04490883584604F046F84FF0000BD2
:1030B00002989DE7809400207FB504460D460123C9
:1030C0000649201D8DE82300039304F12703044AD9
:1030D00019462046FFF76AFF04B070BD2EC40008F1
:1030E00028C400082DE9F04104460D4617469846CD
:1030F0006E6800BF94F82600062801D000BF00BF0C
:1031000000BF062241463046FDF740F80622394608
:10311000B01DFDF73BF80820B08129462046A26982
:103120009047BDE8F081000070B500243DE004EB5D
:1031300084001F4901EB8000857C25B304EB8400EB
:1031400001EB8000C07C401C04EB8401184A02EBB8
:103150008101C87404EB8400114601EB8000C07C3F
:10316000F0280DDA04EB840001EB8000807C01285C
:103170000AD104EB840001EB8000C07C022803DB51
:103180002046FFF70FFD0EE004EB8400084901EB39
:103190008000807C032806D1022004EB8401044ACD
:1031A00002EB81018874601CC4B20A2CBFDB70BDC5
:1031B0009C9500202DE9F04704460D4616461F4613
:1031C00000BF94F82600062801D000BF00BF00BF52
:1031D0005DB1286848B12146286802F0CDF920B9D0
:1031E000286800F0F000E02803D16FF00D00BDE882
:1031F000F08739462846FFF7FBFB8046B8F1000F01
:1032000001DA4046F3E7022008EB88011B4A02EB93
:103210008101887408EB8800114601EB800084600E
:1032200008EB880102EB810101F10C000622314616
:10323000FCF7ACFF002008EB8801104A02EB81018B
:10324000C87408EB8800114651F8200098B108EBCB
:10325000880051F82090002008EB880142F82100F6
:10326000334604F1270249462046FFF73BFF484614
:1032700003F062FF00BF0020B9E700009C9500202A
:103280002DE9F04104460D464FF00E0860890E28E6
:103290000BDC3448008D401C81B232480185C08B64
:1032A000401C81B22F48C18356E06668B7893078E8
:1032B00010F0010F16D03078012809D1707888B944
:1032C000B0785E280ED1607B40F01000607309E09A
:1032D000062225493046FCF786FF18B9607B40F08E
:1032E00008006073082F03D0B7F5C16F24D116E032
:1032F00095F82D0010F0200F00D12DE0C8F100004E
:1033000001B2204603F075FF20B100BF00BF00BF2F
:1033100000BF21E02946204602F048FA18E095F85F
:103320002D0010F0200F00D116E0224605F12701F4
:103330002846FFF79DFA0BE00A48008D401C81B239
:1033400008480185C08B401C81B20648C18303E058
:1033500000BF0020BDE8F081204603F0EDFE002014
:10336000F8E700008094002028C4000870B50546E6
:1033700000BF0DB900BF00BF00BF082003F0C0F8B8
:10338000044614B94FF0FF3070BD0AA02862EC610A
:10339000732085F82E0074212F204155074868615D
:1033A0000748A86105F127002060284602F0F8FED2
:1033B0000020E9E7776A775F69700000E52B000875
:1033C0007962000870B50446204602F02FFF0646D9
:1033D00016B94FF0FF3070BD214630462269904744
:1033E00005461DB1304603F0A7FE00262846F2E749
:1033F00070B504460E461546605D30706019407821
:10340000707060198178B1706019C178F1706019BD
:103410000079307160194079707160198179B171EA
:103420006019C179F1716019082100F00FF8B060DE
:1034300060190C2100F00AF8F06070BD0246505C83
:1034400053185B7800EB032080B270470246C81C1B
:10345000105C0306881C105C03EB0043481C105CE6
:1034600003EB0023505C184470472DE9F04186B00F
:1034700004460D4616460027B84600208DF8000089
:10348000049001900290039504E00298B04201D1AB
:10349000DDF804803A467F1C6946204600F008F8B3
:1034A00010B9B8F1000FF0D0404606B0BDE8F08189
:1034B00070B504460D4616466868B04201D8A86843
:1034C00028B900206860E868A86000202870686853
:1034D000B04201D1002070BD13E0287848B12878AF
:1034E000401E28706868401C6860A868401CA8607E
:1034F00007E02946204600F072F910B14FF0FF3086
:10350000E9E76868B042E8D10020E4E72DE9FC5F14
:1035100004460D461646B0464FF0000AD34600203A
:103520000190E868012802D830B2BDE8FC9F294626
:10353000204601F01EF881464F467AE07F1C206A43
:10354000401CB8422AD8019818B34946204600F0DA
:103550009EF9009002222068009903F06FFB8246DA
:10356000204600F0BCF953460246494600902046EA
:1035700000F088FAC5F810905146206803F09AFBD5
:10358000A6EB0801606B401A6063A6EB080000B26E
:10359000CBE702270198401CC0B201903946204673
:1035A00000F075F9009001222068009903F046FBB5
:1035B000824652463946204600F0C1F8B8B949461D
:1035C000204600F064F9009002222068009903F080
:1035D00035FB83465B463A464946204600F052FAA0
:1035E0005946206803F066FBA8F10108B946514628
:1035F000206803F05FFBB8F1000F1AD1494620465E
:1036000000F045F9009002222068009903F016FBB3
:103610008246204600F063F9534602464946009030
:10362000204600F02FFAC5F810905146206803F0AC
:1036300041FBB8F1000F81D1686910B1686930446D
:103640006861002071E770B586B004460E4600251B
:10365000012E02D8002006B070BD00208DF80000B9
:10366000049001900290039600BF2A466D1C6946A3
:103670002046FFF71DFF0028F7D0681EEBE72DE975
:10368000F05F04460D464FF0000B2946204600F03F
:10369000FEF882462089AAEB0000616A814202D9C5
:1036A000BAF1000F02D10020BDE8F09F012251467F
:1036B000206803F0C3FA064694F83C00012804D0C1
:1036C00002282BD0032833D12DE005EB4500C0F3B1
:1036D000480916F80970A9F58070FF380DD13146F8
:1036E000206803F0E7FA01220AF10101206803F0E3
:1036F000A5FA064696F8008003E009F1010016F8E5
:10370000008015F0010F04D108F00F0007EB002B2B
:1037100003E04FEA081000EB271B09E005F0FF0962
:1037200036F819B004E005F07F0956F829B000BF5B
:1037300000BF3146206803F0BDFA5846B4E72DE9D2
:10374000F84F04460D4616460020009094F83C00C1
:10375000012804D0022832D003283CD135E005EB03
:103760004500C0F3480A16F80A80AAF58070FF38B1
:1037700012D12946204600F08AF800F1010B0122FF
:103780005946206803F05AFA074697F800903946E0
:10379000206803F08FFA03E00AF1010016F80090A8
:1037A00015F0010F05D109F00F0008EB0020009083
:1037B00004E04FEA091000EB281000900BE005F040
:1037C000FF0A36F81A00009005E005F07F0A56F867
:1037D0002A00009000BF00BF0098BDE8F88F2DE9D7
:1037E000F05F04460D464FF0000AA86818B94FF084
:1037F000FF30BDE8F09F2046A96800F048F8064673
:1038000001223146206803F019FA83465A462046C1
:10381000A968FFF794FF81464946204600F074F8F6
:1038200040B1A86828615946206803F043FA4FF078
:10383000FF30DEE7C5F808906868401C6860A8683B
:10384000471E07F101080AE047465A463946204616
:10385000FFF775FF80460AF101000FFA80FAA8F120
:103860000100B84205D14146204600F010F8B042B0
:10387000EAD0BAF1010001D5002001E0AAF101006F
:1038800028705946206803F015FA0020B1E710B5FA
:103890000246148992F83C00012804D002280CD07A
:1038A00003281AD111E001EB4100830A506A9842C3
:1038B00001D8002010BDE018FCE70B0A506A9842BE
:1038C00001D80020F6E7E018F4E7CB09506A9842E7
:1038D00001D80020EEE7E018ECE70020EAE7014617
:1038E00091F83C00012804D0022805D0032809D112
:1038F00005E040F6FF7070474FF6FF70FBE76FF092
:103900007040F8E70020F6E7024692F83C000128F4
:1039100004D0022809D0032816D10DE040F6F87033
:10392000814201D2002070470EE04FF6F8708142CC
:1039300001D20020F7E707E021F07040044B9842E5
:1039400001D20020EFE700BF00BF0120EBE700003D
:10395000F8FFFF0F2DE9F05F04460D461646294695
:103960002046FFF794FF82462089AAEB0000616A97
:10397000814202D9BAF1000F01D1BDE8F09F0222C5
:103980005146206803F05AF9074694F83C00012894
:1039900004D0022862D0032872D168E005EB45000C
:1039A000C0F34809A9F58070FF3831D115F0010F37
:1039B00002D107F8096009E017F8090000F00F00CC
:1039C000F02101EA0611084407F8090029462046BB
:1039D000FFF75DFF00F1010B02225946206803F05A
:1039E0002DF9804615F0010F09D198F8000000F07C
:1039F000F000C6F30321084488F8000003E0C6F392
:103A0000071088F800004146206803F053F920E0D1
:103A100015F0010F0ED107F8096009F10100385CBB
:103A200000F0F000C6F303210844C1B209F101001F
:103A300039540EE017F8090000F00F00F02101EAF8
:103A40000611084407F80900C6F3071009F101013F
:103A500078543946206803F02DF911E005F0FF098C
:103A600027F819603946206803F024F908E005F0CA
:103A70007F0947F829603946206803F01BF900BF29
:103A800000BF7AE72DE9F04704460D4616461F466B
:103A900094F83C00012804D002285ED0032866D1A7
:103AA00060E005EB4500C0F34808A8F58070FF38DA
:103AB00031D115F0010F02D107F8086009E017F8BD
:103AC000080000F00F00F02101EA0611084407F891
:103AD000080029462046FFF7DAFE00F1010A02221B
:103AE0005146206803F0AAF8814615F0010F09D16C
:103AF00099F8000000F0F000C6F30321084489F8AB
:103B0000000003E0C6F3071089F80000494620686A
:103B100003F0D0F820E015F0010F0ED107F808608F
:103B200008F10100385C00F0F000C6F303210844FE
:103B3000C1B208F1010039540EE017F8080000F096
:103B40000F00F02101EA0611084407F80800C6F347
:103B5000071108F10100395409E005F0FF0827F8C2
:103B6000186004E005F07F0847F8286000BF00BF38
:103B7000BDE8F08710B5044600F02FFD98B1002095
:103B800060820121204600F0A3FA28B1E06CE061D8
:103B9000608A20830020E08204F120022146A06A8E
:103BA000FEF775FC0AE00121204600F091FA28B1E9
:103BB00004F12001E26CA06AFEF73AFC5021204695
:103BC00002F002FC00221146204600F035FB0022E4
:103BD0000121204600F030FB002010BD2DE9F0410E
:103BE0008EB004460D4616461F4601A93046FEF724
:103BF000E3FB612F7ED0722F02D0772F7BD122E0A2
:103C000000230CAA3146284600F0EBFB012817D10F
:103C10000CAA21462846FEF7F3FB0CAA29462046AB
:103C200000F05DFA01220021204600F005FB002291
:103C30000121204600F000FB00200EB0BDE8F0811D
:103C40004FF0FF30F9E76B460CAA3146284600F0EA
:103C5000C8FB012815D10CAA21462846FEF7D0FB47
:103C60000CAA2946204600F03AFA012200212046FB
:103C700000F0E2FA01221146204600F0DDFA0020B1
:103C8000DBE7009810B96FF00300D6E700230CAA19
:103C90003146284600F024FC002844D001AA04A99B
:103CA0002846FEF72FFA0CAA04A92846FEF745FA83
:103CB0002022214604A802F090FB0CAA29462046A7
:103CC00000F00DFAA06A00F085FC80464146A06A2B
:103CD00000F06DFC0090A06A04F12001009AFEF74C
:103CE000BCFB2046009900F000FD04F12C012846A1
:103CF000009A01E01AE0ABE000F071FC2846FFF703
:103D0000EEFD8046024628460099FFF723FE012279
:103D10000021204600F090FA01221146204600F0D2
:103D20008BFA002089E76FF0020086E700230CAAD7
:103D30003146284600F055FB01283BD10CAA21460C
:103D40002846FEF75DFB0CAA2946204600F0C7F97D
:103D5000A06B00BBA06A00F03DFC80464146A06A13
:103D600000F025FC0090A06A04F12001009AFEF703
:103D700074FB2046009900F0B8FC2846FFF7AFFD21
:103D80008046024628460099FFF7E4FD0CAA294622
:103D9000204600F0A4F92046E16C00F05FFA012211
:103DA0000021204600F048FA01221146204600F08A
:103DB00043FA4BE000230CAA3146284600F090FB62
:103DC000002840D001AA04A92846FEF79BF90CAAB6
:103DD00004A92846FEF7B1F92022214604A802F0E2
:103DE000FCFA0CAA2946204600F079F9A06A00F0F6
:103DF000F1FB80464146A06A00F0D9FB0090A06A22
:103E000004F12001009AFEF728FB2046009900F0FB
:103E10006CFC04F12C012846009A00F0E0FB2846D7
:103E2000FFF75DFD8046024628460099FFF792FDA8
:103E300001220021204600F0FFF901221146204610
:103E400000F0FAF902E06FF00200F6E60020F4E676
:103E50006FF00300F1E62DE9F04F87B004460D4600
:103E600016461F464FF00008B146AA4600212046DC
:103E700000F02EF918B9002007B0BDE8F08FE06C13
:103E8000A84201D84FF00009A819E16C884205D971
:103E9000B9F1000F02D0E06CA0EB050963E0A06A65
:103EA00080794002BAFBF0F006904FEA5A21A06AEE
:103EB0008079B1FBF0F200FB12100590CAF3080004
:103EC0000490049810B9B9F5007F0DD2CAF3080028
:103ED000C0F50070484501D3484603E0CAF3080026
:103EE000C0F50070029002E04FF400700290A06AEA
:103EF00004F12C01069AFFF7DBFA08B10020BBE7BA
:103F0000606B0390A06A039900F009FA8346029857
:103F1000B0F5007F09D107EB0802059B0BEB03010D
:103F2000A36A186802F045FE16E0059A0BEB020141
:103F3000A26A1068012202F081FE019007EB0801DD
:103F4000CAF30803019A9818029A02F046FAA16A85
:103F50000868019902F0AEFE0298824402988044FB
:103F60000298A9EB0009B9F1000F98D1404683E708
:103F70002DE9FF4F87B004460D461E46DDF824901C
:103F80004FF0000A03950021204600F0A1F820B16F
:103F90000121204600F09CF818B900200BB0BDE8C4
:103FA000F08FE06CA84200D2E56C29462046099AC1
:103FB00000F00BF90690069840B1A06A04F12C01BC
:103FC000069AFFF7A3FA08B10020E7E771E0A06ABC
:103FD000807941020398B0FBF1F005900398410A03
:103FE000A06A8079B1FBF0F200FB12170398C0F3CE
:103FF0000808B8F1000F02D1B9F5007F10D203987C
:10400000C0F30800C0F50070484501D3484604E0FD
:104010000398C0F30800C0F5007080B2029002E07F
:104020004FF400700290A06A04F12C01059AFFF78A
:104030003FFA50B1E06C5044E06404F12001E26CBE
:10404000A06AFEF7F5F95046A8E7606B0490A06AF5
:10405000049900F064F983460298B0F5007F08D116
:1040600006EB0A020BEB0701A36A186802F0B3FD26
:1040700016E00BEB0701A26A1068022202F0DEFDD7
:104080000190039AC2F30803019A991806EB0A00FB
:10409000029A02F0A2F9A16A0868019902F00AFEE8
:1040A000DDE9021008440390029882440298A9EBCB
:1040B0000009B9F1000F8AD1E06C401B504505D2D0
:1040C000E06C411BAAEB01010844E064504665E73F
:1040D000024692F8440001238B401840704710B507
:1040E0008162C369C3640023836413680362147923
:1040F00024231C54002380F82C30438B848A03EB48
:10410000044484630024C4630463846B446310BD6B
:1041100070B502460B4600250026002403E020204F
:104120001855601CC4B20B2CF9DB002410782E2823
:104130000AD11870701CC6B250782E2802D158705F
:10414000921C26E0521C24E01BE010782E2803D19C
:1041500015B90125082413E045B10A2C10DC1078AC
:1041600000F086F81855601CC4B209E0072C07DC83
:10417000107800F07DF81855601CC4B2701CC6B2EF
:10418000521C107828B11078202802D010782F28DF
:10419000DBD1002E05DD107808B9104670BD501C2B
:1041A000FCE70020FAE72DE9F04104460D461646EB
:1041B00033462A462046A16CFFF74DFE0746A06C09
:1041C0003844A0643846BDE8F0812DE9F047044644
:1041D0000D461646A819E16C884229D9206C38B9D9
:1041E000A16BA06AFFF72FFA8046C4F8408001E077
:1041F000D4F84080A06A8088A16A897900FB01F91F
:10420000E06C4844401EB0FBF9F0A8EB000000FB56
:1042100009F0E16C711A2944884207D2A81908FBF9
:1042200019004844401EB0FBF9F702E0002700E007
:1042300000273846BDE8F08710B53AB190F8444001
:1042400001238B401C4380F8444006E090F8443042
:1042500001248C40A34380F8443010BD0246D06C4A
:10426000884202D39164002070474FF0FF30FBE793
:104270000146202912DB03DD302901DA2D290DD179
:10428000392901DD412909DB5A2903DD612901DAD8
:104290005F2903D17A2903DD7E2901D05820704798
:1042A000612905DB7A2903DCA1F12000C0B2F6E721
:1042B0000846F4E72DE9F04104460D46164633461C
:1042C0002A462046A16CFFF753FE0746A06C3844EF
:1042D000A0643846BDE8F0812DE9F04104460D4662
:1042E000002616E02946204600F019F800EB0608E3
:1042F00002224146206802F0A1FC07464FF40071FB
:10430000384602F061F83946206802F0D3FC701C90
:1043100086B2A079B042E5DC0020BDE8F08170B53E
:10432000024692F83C00032805D11489907A556A18
:1043300005FB00430AE01589947A566A06FB04558A
:104340009089C41700EB147405EB24138C1E90792C
:1043500004FB003070BD30B583885C1E838904EB9C
:104360004313848893FBF4F1038A23B1038A4362E5
:104370000024846103E08369436200240482C389CA
:1043800023B1C38983620024446103E043698362EB
:104390000024C4810489837A456A03FB05430B44E6
:1043A000846AE21A8379B2FBF3F3036230BD40F60C
:1043B000F572016A914205D2012180F83C10002279
:1043C000C2610DE04FF6F572016A914205D20221F9
:1043D00080F83C100022C26102E0032180F83C100A
:1043E00070472DE9FF4F85B00C4615461E464FF02D
:1043F000000AD34620782F280CD1059800F0B0F899
:104400000746641C06B13760207838B9022009B02D
:10441000BDE8F08F0598076B06B1376033E00023E5
:1044200000932B463A4602A90598FDF74CFF5FEA38
:10443000000809D102A94846FFF76AFE10B10EB183
:10444000002030600020E2E70AF1010000F0FF0ADE
:10445000687910F0100F09D047464C4606B1376016
:10446000BBF1000F0FD0002030600CE04FF0010BCB
:1044700002A94846FFF74CFE20B10EB10020306083
:104480000020C4E74C4602A92046FFF741FE5FEA40
:104490000009C4D1BAF1000F00D1B8E7687910F073
:1044A000100F02D1BBF1000F01D10220AFE70120B4
:1044B000ADE790F83C1003290BD10289837A81691A
:1044C00003FB0122C1698B1E817903FB0121C162BB
:1044D00005E00289837A018A03FB0121C1627047EA
:1044E000F0B585B004460D4616461F4600200490E0
:1044F00004AB324629462046FFF773FF10B1002077
:1045000005B0F0BD01A92846FDF756FF08B9002007
:10451000F6E701230093334601A92046049AFDF7EC
:10452000D2FE08B10120EBE720460499FDF7B3FD68
:1045300008B10020E4E701230093334601A9204697
:10454000049AFDF7C0FE08B10120D9E70020D7E7A3
:1045500010B504460021A26A206802F04EFB10BD8F
:10456000014691F83C00032801D1C8697047012039
:10457000FCE770B504460D46A86818B9E868A8605D
:1045800000206860286980B909E0297868680844D3
:1045900068602978A8680844A86000202870294627
:1045A0002046FFF71CF90028EFD0286970BD70B5D0
:1045B00004460E4609E0002231462046FFF75FF828
:1045C00005460DB9304670BD761C206AB042F2D85F
:1045D0000020F8E701460220704700207047CA60BB
:1045E0008A6000234B600B610B704B61704700B514
:1045F00002461046FFF7B4FF106300BD70B50446D5
:104600000D46284600F01EF810B94FF0FF3070BD7F
:1046100025602946204600F02EF8204600F06FF86D
:1046200010B96FF00100F2E72046FFF794FE204634
:10463000FFF7BDFE2046FFF73CFF2046FFF7D7FF00
:104640000020E4E770B5044605220021204602F070
:10465000F5FA05464FF4FF712846FEF7EFFEA0F588
:104660002A41553901D0002070BD2946204602F06C
:1046700021FB0120F8E770B504460D460522002114
:10468000284602F0DBFA06460B213046FEF7D6FE3E
:10469000A080717BA1710E213046FEF7CFFE2081F4
:1046A000317CA17211213046FEF7C8FEA081132192
:1046B0003046FEF7C3FEE08116213046FEF7BEFE0F
:1046C000208220213046FEF7C1FE60612421304661
:1046D000FEF7BCFEA0612C213046FEF7B7FEE0617C
:1046E0003146284602F0E6FA70BD0A0C8282418308
:1046F000704710B504462046FFF72AFF10BD01465B
:1047000001208A88B2F5007F00D000208A79012A32
:1047100000D100E000228B79022B01D1012300E0BF
:1047200000231A438B79042B01D1012300E00023DD
:104730001A438B79082B01D1012300E000231A438F
:104740008B79102B01D1012300E000231A438B79D0
:10475000202B01D1012300E000231A438B79402B49
:1047600001D1012300E000231A4300D100200A896F
:1047700002B900200A8A6AB10A68126808320B6816
:1047800093F9043002EB0312D3680A8A93420ED2E3
:1047900000200CE00A68126808320B6893F90430B4
:1047A00002EB0312D3688A69934200D2002070475B
:1047B00001460120704770B504460D462A46032184
:1047C000204600F01BF970BD2DE9FE4F04460D4652
:1047D0008748B0F86200401C81B28548A0F862109A
:1047E000D4F8048098F8000000074FEA9069C9F1F6
:1047F0000001204602F0FDFC10B92089042800D2F7
:10480000DEE06068067816B1082E73D100E0D2E0D1
:104810004FF0010A7748006800F0F000E02801D16D
:104820004FF0000A73490868294600F0A5FE08B158
:104830004FF0000ABAF1000F0CD16D48B0F87400C7
:10484000401C81B26A48A0F87410204602F074FC43
:10485000BDE8FE8F2089082800D2B1E0204600F094
:10486000A7F958B1204602F067FC6148B0F868002B
:10487000401C81B25E48A0F86810E9E7222120467A
:1048800002F0B7FC00283BD04946204602F0B1FCBC
:1048900020B100BF00BF00BF00BF9DE02189002202
:1048A000022002F010FA8246BAF1000F00D193E024
:1048B00000BFBAF80A1009F10800814201D200BF16
:1048C00000BF00BF2146504602F077FB20B100BF79
:1048D00000BF00BF00BF7FE0DAF80480C9F100002C
:1048E00001B2504602F085FC28B100BF00BF00BFF6
:1048F00000BF71E04FE0204602F01EFC54460AE083
:104900006FF02101204602F074FC20B100BF00BF0F
:1049100000BF00BF60E0676836480068C8F80C0058
:1049200035480068C8F810000020387078884FF6C5
:10493000F771884203D378880930788002E078885C
:1049400008307880FF2088F808000020A8F80A00C6
:104950001421404600F022F9A8F80A002448B0F8D3
:104960006000401C2249A1F860004946204602F040
:1049700040FC18B100BF00BF00BF0BE001220021C6
:10498000FF238DE826000A461A49204601F058F810
:10499000824600BF0FE01648B0F87000401C81B29C
:1049A0001348A0F87010B0F86600401C81B210489F
:1049B000A0F8661000BF00BF204602F0BDFB47E72D
:1049C000204602F0B9FB0A48B0F86A00401C81B2E8
:1049D0000748A0F86A103BE7204602F0ADFB044808
:1049E000B0F87400401C81B20148A0F874102FE7A1
:1049F00080940020400500203C0500202DE9FE4366
:104A000004460D46164600222421012002F05BF9DF
:104A100007460FB9BDE8FE8300BF7889242801D27C
:104A200000BF00BF00BFD4F80480D7F8049089F815
:104A3000005089F801600020A9F80400A9F80600D8
:104A400061687A6802F108001C22FBF79FFB0020D6
:104A5000A9F802007989484600F0A0F8A9F80200F8
:104A60000B48B0F86000401C0949A1F86000D8F874
:104A70000C00029001230022CDE90023FF2302AAAB
:104A80000021384600F0AEFF384602F055FBC1E782
:104A90008094002070B504460D462A460B2120461E
:104AA000FFF7ACFF70BD38B504460D46204600F058
:104AB0002DF8204602F080FE002802DA4FF0FF3089
:104AC00038BD204602F0F1FF002802DA6FF0010045
:104AD000F6E76946204603F021F80098400A206076
:104AE0000098C005C00D02D02068401E2060002044
:104AF000E6E770B504460D4616464FF4007332469D
:104B00002946204603F0C2F870BD000070B5054686
:104B1000FCF7DEFC10210748FCF772F9002405E0E1
:104B2000FF21284601F06EFF601CC4B2152CF7DB94
:104B300070BD00000008014070B506460C4610210B
:104B40000F48FCF75BF900BF02210E48FCF70CFD93
:104B50000028F9D021460B48FCF712FD00BF0121C7
:104B60000848FCF701FD0028F9D00648FCF705FDD0
:104B7000C5B210210248FCF743F9284670BD000079
:104B8000000801400030014070B504460D4616464D
:104B900032462946204603F0D3F870BD70B504466E
:104BA0000D462946204601F0C2FBC04380B270BDCD
:104BB0002DE9F041044600250027264617E07189BB
:104BC000706801F0B4FB0544A8B200EB154570898C
:104BD00000EBD0714910B0EB410107D0C7F10100E3
:104BE000C7B2E8B2C5F3072141EA00253668002EB6
:104BF000E5D127B1E8B2C5F3072141EA0025E84332
:104C000080B2BDE8F0812DE9F05F04460D461646FE
:104C10001F464FF00008C346A2461EE0BAF80A102D
:104C2000DAF8040001F083FB80441FFA88F000EBFF
:104C30001848BAF80A0000EBD0714910B0EB4101F6
:104C400009D0CBF1010000F0FF0B08F0FF00C8F322
:104C5000072141EA0028DAF800A0BAF1000FDDD1FF
:104C6000BBF1000F05D008F0FF00C8F3072141EAAF
:104C70000028D5F800901FFA89F080444FF6FF70A5
:104C800000EA19408044D6F800901FFA89F0804469
:104C90004FF6FF7000EA19408044384601F035FBBA
:104CA00080440A9801F031FB80441FFA88F000EB41
:104CB00018481FFA88F000EB18486FEA080080B225
:104CC000BDE8F09F02898A4202DC05220273704728
:104CD00000F11D02525C02B9F9E700F11D02525CBD
:104CE000521ED3B200F11D025354F0E72DE9F041FA
:104CF00004460D4616462946204600F0DCF800B270
:104D00000746401C0DD0B9B2204600F0CAF98046D3
:104D10004FF400723146404601F05FFB0020BDE8D1
:104D2000F081204600F079F800B20746401C15D00B
:104D3000BAB22946204600F032FB10B14FF0FF30E6
:104D4000EDE7B9B2204600F0ACF980464FF40072AE
:104D50003146404601F041FB0020E0E7324629465B
:104D6000204600F042FB10B14FF0FF30D7E70020A3
:104D7000D5E72DE9F04104460D4616462946204662
:104D800000F099F800B20746401C13D0B9B2204693
:104D900000F087F980464FF400724146304601F03A
:104DA0001CFB01230222B9B2204600F0B1FB002017
:104DB000BDE8F081204600F030F800B20746401C04
:104DC00020D0B9B2204600F06CF980464FF4007252
:104DD0004146304601F001FBB9B2204600F086FBA7
:104DE00004F1180040F8275001230222B9B22046EE
:104DF00000F08EFB01230022B9B2204600F088FBB0
:104E00000020D5E732462946204600F09DFB10B130
:104E10004FF0FF30CCE70020CAE730B5054600244C
:104E200009E000222146284600F010F908B9204682
:104E300030BD601C84B22889A042F2DC4FF0FF3004
:104E4000F6E72DE9F0410446FF264FF0FF38002732
:104E50002BE004F11F00C05D6189884223DA002540
:104E600002223946204600F0F1F810B105F17F002A
:104E7000C5B204F11F00C05D4D214843618990FB1C
:104E8000F1F005443946204600F017F900EB001018
:104E900000EB4000FF2190FBF1F02844C5B2B54281
:104EA00001DA2E46B846781C87B22089B842D0DC99
:104EB0004046BDE8F08170B504460D4600260FE07F
:104EC00000223146204600F0C1F838B104F1180044
:104ED00050F82600A84201D1304670BD701C86B241
:104EE0002089B042ECDC4FF0FF30F6E72DE9F041CD
:104EF00004464FF0FF3500274FF0FF08002638E04A
:104F00003146204600F087F9002830D10222314690
:104F1000204600F09BF820B91FB901274FF0FF0889
:104F2000BD1E02223146204600F090F860B15FB904
:104F30003146204600F0C1F8404505DC3546314693
:104F4000204600F0BAF880468FB102223146204652
:104F500000F07CF858B93146204600F0AEF84045E4
:104F600005DC35463146204600F0A7F88046701C27
:104F700086B22089B042C3DC2846BDE8F0812DE925
:104F8000F04104460D461746BD4202D92E463D4625
:104F90003746002625E004F1180050F82600A84204
:104FA0001ED304F1180050F82600B84218D8022287
:104FB000B1B2204600F04AF890B1B1B2204600F0FC
:104FC00015F818B14FF0FF30BDE8F08104F11D0075
:104FD000805D28B900230222B1B2204600F098FA81
:104FE000761C2089B042D6D80020EDE770B5044683
:104FF0000D462946204600F054F8060003D108204B
:105000002073701E70BD02222946204600F01EF853
:1050100020B9092020734FF0FF30F3E704F11800A6
:1050200050F825103246204600F08EFA18B90420B8
:105030002073401FE6E714F11D0005D10023022272
:105040002946204600F064FA0020DBE710B503464D
:105050001889884203DC02201873FF2010BD03F179
:105060001C00405C012494402040F7E70246506851
:10507000884205D81389506800EB4320884204D841
:10508000082010734FF0FF30704750680B1AD81784
:1050900003EBD050401200B2F6E7024602F12000C6
:1050A000704702461089884203DC052010730020F7
:1050B0007047506800EB4120FAE7024610898842A9
:1050C00003DC052010730020704702F11E00405CD5
:1050D000FAE72DE9F04104460D46164629462046DA
:1050E000FFF7E9FE0746401C19D016F0020F05D065
:1050F00001230222B9B2204600F00AFAB9B22046D2
:1051000000F0AAF816F0040F03D1B9B2204600F05F
:105110008EF8B9B22046FFF7C4FFBDE8F081204603
:10512000FFF77BFE0746401C0FD12046FFF7DEFE4F
:105130000746401C09D00222B9B22046FFF786FF7D
:1051400018B1B9B22046FFF751FF781C23D0B9B28D
:10515000204600F0CBF9BAB22946204600F01FF9EC
:1051600008B10020D9E7022E05D101230222B9B2ED
:10517000204600F0CDF9B9B2204600F06DF816F0E7
:10518000040F03D1B9B2204600F051F8B9B220465D
:10519000FFF787FFC1E72046FFF753FE0746401C95
:1051A00035D00222B9B22046FFF750FF18B1B9B28C
:1051B0002046FFF71BFFB9B2204600F0B4F808B153
:1051C0000020AAE7B9B2204600F090F9BAB2294609
:1051D000204600F0E4F808B100209EE716F0020F28
:1051E00005D001230222B9B2204600F091F9B9B2EC
:1051F000204600F031F816F0040F03D1B9B2204672
:1052000000F015F8B9B22046FFF74BFF85E70A20FA
:105210002073002081E702461089884203DC0520C4
:1052200010730020704702F11D00405CFAE702890C
:105230008A4202DC05220273704700F11E02525CB2
:10524000FF2A00D1F8E700F11E02525C521CD3B2D3
:1052500000F11E025354EFE702898A4202DC052264
:105260000273704700F11D02525CFF2A00D1F8E77B
:1052700000F11D02525C521CD3B200F11D025354C6
:10528000EFE770B504460D461646256031462046C8
:10529000FFF703FF6060012020816081204600F05D
:1052A000E8F8002070BD02461089884204DC07201F
:1052B00010734FF0FF30704702F11F00405C20B1C7
:1052C00002F11F00405C012802DD4FF0FF30F2E7E1
:1052D00002F1100000EBC1030F30405C53F8303096
:1052E00002F1180040F82130083800EBC1030F30FC
:1052F000405C03EBC000037902F11C0043540C38FE
:1053000000EBC1030F30405C03EBC000437902F1B6
:105310001D004354801C405C401EC3B202F11F00BC
:1053200043540020C7E710B502461089884203DCC9
:1053300005201073801F10BD02F11F00405C012882
:1053400003DB06201073C01FF5E702F11F00405C6D
:10535000401CC3B202F11F004354C01F50F821305B
:10536000083800EBC1040F30405C44F8303002F1E3
:105370001C00435C0C3800EBC1040F30405C04EBB4
:10538000C000037102F11D00435C0D3800EBC10445
:105390000F30405C04EBC00043710020CBE72DE9E7
:1053A000F04104460D46164631462046FFF779FE89
:1053B000070004D108202073781EBDE8F0813A462A
:1053C0002946204600F011F818B103202073001F71
:1053D000F3E7012300223146204600F099F804F15A
:1053E000180040F826500020E7E72DE9F041044678
:1053F0000D4617461FB94FF0FF30BDE8F0813A4621
:1054000029462068FFF775FB06461EB1032020736E
:10541000001FF2E70020F0E770B504460D4629466C
:105420002046FFF723FE86B231462046FFF74AFCAE
:1054300031462046FFF7EFFEC8B904F11F00805D3A
:10544000A8B1022231462046FFF700FE18B13146CE
:105450002046FFF7CBFD31462046FFF724FF04F13D
:10546000180050F8261032462046FFF798FF00201B
:1054700070BD70B504462089810004F1180000F069
:10548000A3FF218904F11C0000F09EFF218904F193
:105490001D0000F099FF218904F11F0000F094FF26
:1054A0000020207300251DE0002616E0002104F1F5
:1054B000100000EBC50040F8361004F1100000EBBE
:1054C000C50000EBC600017104F1100000EBC5003F
:1054D00000EBC6004171701C86B26089B042E5DC09
:1054E000681C85B22089A842DEDC70BD02898A4230
:1054F00002DC052202737047002300F1180242F813
:105500002130121D5354521C5354521C5354F2E771
:1055100030B504898C4202DC0124047330BD4BB1E8
:1055200000F11C04655C01249440254300F11C0437
:10553000655408E000F11C04645C01259540AC430F
:1055400000F11C056C54E9E72DE9F04104460D46D5
:1055500017461FB94FF0FF30BDE8F0813A462946A3
:105560002068FFF711FB0646002E03DC04202073A1
:10557000401FF1E70020EFE718B502460092D04344
:1055800000D00AB9012018BD91F82D0010F0020FCB
:1055900001D10020F7E74868904201D10020F2E7EE
:1055A000009B88680340D1E901042040834208D170
:1055B000886822EA00008C68E343984201D1012008
:1055C000E1E70020DFE700002DE9F74F8CB004464B
:1055D0000D98808C0A90142006904FF0000B6068A4
:1055E0000B900B9FF88800F09CFE05900598C0F387
:1055F0000C000990059800F4005008902089143898
:105600001FFA80F90A99A1F11400C11700EB51713A
:10561000C1F3CF08ADE00A981438484501DB0120FA
:1056200000E0002080B207900998C0F30C000899B0
:1056300008430590079818B9059840F40050059064
:10564000079808B1484601E04FEAC8001FFA80FAFF
:1056500000221421022001F036FB054625B94FF047
:10566000FF300FB0BDE8F08F00BF6089142801DA69
:1056700000BF00BF00BF142268680B99FAF786FDCF
:105680006F68606806990844606060890699401AEE
:105690006081CDF810A041E060890499884201DD65
:1056A000049800E060891FFA80FBBBF1000F01D174
:1056B000246833E000F068F80390039828B928467E
:1056C00001F03AFD4FF0FF30CBE76268CDE9002BE7
:1056D000022259460320039B01F0FEFB064646B911
:1056E000039800F056F8284601F026FD4FF0FF30F1
:1056F000B7E7204601F01CFE039844612048039957
:1057000008613146284601F01EFC0498A0EB0B000E
:1057100080B20490049800B1246800BF0498002867
:10572000BAD1CDF818B0059800F0EFFDF8800AF175
:10573000140080B200F0E9FD788000207881142107
:105740003846FFF72BFA78810D98436929460E9A5F
:1057500098470C48008E401C0A490886284601F0EC
:10576000EBFCA9EB0A001FFA80F90998404480B2CB
:105770000990B9F1000F7FF44EAF002071E70000EF
:10578000716100088094002010B5062001F0D8F85F
:1057900010BD10B5044600BF0CB900BF00BF00BF6C
:1057A0002146062001F050F810BD00002DE9F04719
:1057B00004460D468548B0F84A00401C81B2834833
:1057C000A0F84A10666830780421B1EB201F14D08D
:1057D000204601F0B1FC7D48B0F85C00401C81B26D
:1057E0007A48A0F85C10B0F84E00401C81B27748AF
:1057F000A0F84E100020BDE8F087307800F00F08C8
:105800004FEA8808708800F08CFD81466089404529
:1058100002DB2089484513DA204601F08DFC6B48F5
:10582000B0F85200401C81B26848A0F85210B0F89D
:105830004E00401C81B26548A0F84E100020DAE707
:1058400041463046FFF7AAF998B1204601F074FCB2
:105850005E48B0F85000401C81B25C48A0F850107F
:10586000B0F84E00401C81B25848A0F84E100020FD
:10587000C1E74946204601F002FD306954490860FD
:10588000F068544908604FF0010A2F4600BF97F8AE
:105890002D0010F0010F0FD0381D0DD0786858B1D1
:1058A0004B4800687968884205D0494908683946FC
:1058B000FFF762FE00B10DE0BAF1000F04D04FF027
:1058C000000A4548076800E03F68AF4200D13F68E2
:1058D000002FDCD100BF3F4908682946FFF74CFE86
:1058E00028B93C48006800F0F000E0280CD12046C0
:1058F00001F022FC3548B0F84E00401C81B233481C
:10590000A0F84E10002076E727B9204601F014FCDD
:10591000002070E7F0884FF63F71084207D020461C
:1059200000F042F904460CB9002064E766682B4891
:1059300005602B4806602946204601F047FE0028F6
:105940003AD1707A01280DD0062806D011280ED140
:105950002946204605F0E2FF2DE02946204603F0C7
:10596000B1F828E029462046FEF72EFF23E018492B
:1059700008682946FFF700FE50B91548006800F096
:10598000F000E02804D0666002212046FEF713FFF5
:10599000204601F0D1FB0D48B0F85800401C81B200
:1059A0000A48A0F85810B0F84E00401C81B20748D1
:1059B000A0F84E1000BF00BF002008490860084949
:1059C0000860044908600249086014E780940020D8
:1059D000400500203C050020D804002034050020AC
:1059E000380500202DE9FE4F04460D4616461F4699
:1059F000DDE90C9A00BFE089012801D000BF00BF9B
:105A000000BF304600F080FB5FEA00080BD10B4876
:105A1000B0F85600401C81B20848A0F856106FF04C
:105A20000300BDE8FE8F3B46324629462046CDE9BD
:105A3000009ACDF8088000F003F8F2E78094002087
:105A40002DE9FC5F04460D4616461F46DDF83890EA
:105A5000DDF830804FF0000B00BFE089012801D055
:105A600000BF00BF00BF002E78D01420009014218A
:105A7000204601F0BEFB58B14948B0F85C00401C1C
:105A800081B24748A0F85C106FF00100BDE8FC9FB0
:105A9000D4F804A000BF6089142801D200BF00BF61
:105AA00000BF8AF808700D988AF809000D9847EA37
:105AB000002083443068CAF81000DAF8100080B281
:105AC0008344DAF810000BEB104B0098C11700EB81
:105AD0009171C1F3870141F040018AF800108AF802
